:020000040800F2
:10000000005000204D01000839020008410200089C
:1000100049020008510200085902000800000000CF
:100020000000000000000000000000006102000865
:100030006D02000800000000790200088502000837
:100040009102000891020008910200089102000844
:100050009102000891020008910200089102000834
:100060009102000891020008910200089102000824
:100070009102000891020008910200089102000814
:100080009102000891020008910200089102000804
:1000900091020008910200089102000891020008F4
:1000A00091020008910200089102000891020008E4
:1000B00091020008910200089102000891020008D4
:1000C00091020008910200089102000891020008C4
:1000D00091020008910200089102000891020008B4
:1000E000910200089102000891020008000000003F
:1000F0000000000000000000000000000000000000
:0C01000000000000000000005FF808F1A3
:10010C0010B5054C237833B9044B13B10448AFF345
:10011C0000800123237010BD0400002000000000AB
:10012C00B802000808B5034B1BB103490348AFF3F1
:10013C00008008BD0000000008000020B802000884
:10014C0072B63048016841F01D0101602E4801680B
:10015C0021F0E06141F0007101602C484FF0443116
:10016C0001602B484FF0223101602A482A49016076
:10017C002A48016821F4700141F48001016028488B
:10018C004FF00001016000F02AF82648046804F0E2
:10019C00FF0423484FF40051016000F020F821487F
:1001AC00056805F0FF051E484FF40051016000F092
:1001BC0016F866191A484FF40041016000F00FF868
:1001CC00374607F0FF073246120A02F0010247EAEF
:1001DC0002271348076000F002F8D0E7FEE7124848
:1001EC00016811F4005FFBD14FF4FA52013AFDD1D2
:1001FC00016811F4005FFBD04FF4FA52013AFDD1C3
:10020C007047000018100240040001400008014033
:10021C00000C0140040C014002002022041001409B
:10022C000C0C0140080801400810014080B400AFDC
:10023C0000BFFDE780B400AF00BFFDE780B400AFA6
:10024C0000BFFDE780B400AF00BFFDE780B400AF96
:10025C0000BFFDE780B400AF00BFBD4680BC704757
:10026C0080B400AF00BFBD4680BC704780B400AF07
:10027C0000BFBD4680BC704780B500AF00F004F8ED
:10028C0000BF80BDFEE7000080B400AF054B1B78BB
:10029C001A46054B1B681344034A136000BFBD4646
:1002AC0080BC70470000002020000020F8B500BF83
:1002BC00F8BC08BC9E467047F8B500BFF8BC08BC3B
:0402CC009E46704793
:0402D00031010008F0
:0402D4000D01000810
:0402D8000100000021
:040000050800014DA1
:00000001FF
